:020000040000FA
:10000000E80E0020250800002D0800002F08000041
:10001000310800003308000035080000000000002F
:100020000000000000000000000000002D030000A0
:100030003908000000000000E5030000490400004A
:100040003F08000041080000430800004508000088
:1000500047080000490800004B0800004D08000058
:100060004F08000051080000530800005508000028
:1000700057080000590800005B0800005D080000F8
:100080005F080000610800006308000065080000C8
:1000900067080000690800006B0800006D08000098
:1000A0006F08000071080000730800007508000068
:1000B00077080000790800007B0800007D08000038
:1000C0007F08000081080000830800008508000008
:1000D00087080000890800008B0800008D080000D8
:1000E0008F080000910800009308000095080000A8
:1000F00097080000990800009B0800009D08000078
:100100009F080000A1080000A3080000A508000047
:10011000A7080000A9080000AB080000AD08000017
:10012000AF080000B1080000B3080000B5080000E7
:10013000B7080000B9080000BB080000BD080000B7
:10014000BF080000C1080000C3080000DD0800006F
:100150000000000000000000DF080000E1080000CF
:10016000E3080000E508000000000000E7080000C8
:10017000E9080000EB080000ED080000EF080000AF
:10018000F1080000F3080000F5080000F70800007F
:10019000F9080000FB080000FD080000FF0800004F
:1001A000010900000309000005090000070900001B
:1001B000090900000B0900000D0900000F090000EB
:1001C00011090000130900001509000017090000BB
:1001D000190900001B0900001D0900001F0900008B
:1001E000210900002309000025090000270900005B
:1001F000290900002B0900002D0900002F0900002B
:1002000000F002F800F03CF80AA090E8000C8244EC
:100210008344AAF10107DA4501D100F031F8AFF2C9
:10022000090EBAE80F0013F0010F18BFFB1A43F0D4
:10023000010318473C1D00005C1D0000103A24BF5C
:1002400078C878C1FAD8520724BF30C830C144BF3B
:1002500004680C607047000000230024002500267D
:10026000103A28BF78C1FBD8520728BF30C148BF19
:100270000B6070471FB501F011FE1FBD10B510BD1A
:1002800000F090FB1146FFF7F5FF0FB400F00CF8FB
:100290000FBC00F033FA00F073FB03B4FFF7EEFF7E
:1002A00003BC00F079FB000004B000F087FC0448B8
:1002B000002100F0EFFC00F093FC00F061FB000077
:1002C000601F000080F309887047EFF309807047D2
:1002D000684680F3098804480078C00714BF0220EC
:1002E000032080F314887047201F0000DFF818C037
:1002F000EFF305831B0618BF6047EFF31483DB079A
:1003000008BF604700DF70473B0D0000DFF818C0F2
:10031000EFF305831B0618BF6047EFF31483DB0779
:1003200008BF604700DF7047B90F0000EFF3098096
:10033000816911F8021CE1BB90E80F1010B5E0478D
:10034000BDE81040EFF3098C8CE80700214B93E8DF
:100350000600914208BF704741B91EF0100F16D138
:100360001D49086820F00100086010E01EF0100F21
:1003700006BF2CED108A0120002081F825002CE911
:10038000F00FC1F828C00CB401F0C8F90CBC1A6019
:10039000D2F828C0BCE8F00F92F8250000280EBF64
:1003A0006FF0020E6FF0120EBCEC108A8CF309880D
:1003B000704710B5094A1268914209D8084C54F8A0
:1003C000214090E80F10A047EFF3098C8CE80F0054
:1003D00010BD00003400002034EF00E0F009000000
:1003E000F009000010B501F05DF8BDE81040154BB4
:1003F00093E80600914208BF7047EFF3098C1EF0A6
:10040000100F06BF2CED108A0120002081F8250076
:100410002CE9F00FC1F828C00CB401F07FF90CBC36
:100420001A60D2F828C0BCE8F00F92F82500002826
:100430000EBF6FF0020E6FF0120EBCEC108A8CF340
:10044000098870473400002010B501F02FFACCE77E
:1004500010B500F071FC01F029FAC6E758480068B1
:1004600040F481505649086056480068554949682B
:1004700008435549096808435349086051480068D2
:100480005049496808435149096808434F49086081
:100490004C4880684B49C96808434D49096808437E
:1004A0004B490860474880684649C968084349493C
:1004B00009680843474908607047042834D230B1BE
:1004C00001280FD0022818D003282CD120E03E4963
:1004D000091F09683B4A52F8202011433E4AC2F8DE
:1004E000FC1320E03849091F0968364A52F82020D9
:1004F0001143394AC2F8FC1315E03549091F096850
:10050000304A52F820201143344AC2F8FC130AE062
:100510002F49091F09682B4A52F8202011432F4AFE
:10052000C2F8FC1300BF00BF7047042834D230B1BA
:1005300001280FD0022818D003282CD120E022490E
:10054000091F09681F4A52F820209143224AC2F825
:10055000FC1320E01C49091F09681A4A52F82020A0
:1005600091431D4AC2F8FC1315E01949091F096897
:10057000144A52F820209143184AC2F8FC130AE0AA
:100580001349091F09680F4A52F820209143134A62
:10059000C2F8FC1300BF00BF704710B5044600232B
:1005A0000BE001209840204018B11846FFF785FF66
:1005B00002E01846FFF7B9FF5B1C042BF1DB10BD0E
:1005C00008E60F40A81E0000004406401C450640F7
:1005D00000D405401CD505400040064000D0054031
:1005E00010B50446072C02D02046FFF766FF10BD69
:1005F00010B50446072C02D02046FFF796FF10BD29
:1006000010B504464FF480715348006800F02AFB8F
:100610004FF4FA7000F0C6FA4FF480714E4800684B
:1006200000F020FB4FF4FA7000F0BCFA01212046E4
:1006300000F018FB4FF4FA7000F0B4FA10BD0EB5DC
:1006400000BF4FF0FF320121684600F017FB002089
:10065000FFF7C6FF41480068FFF7D2FF0020FFF711
:10066000C7FFEEE70EB500BF4FF0FF32012168462D
:1006700000F004FB0120FFF7B3FF39480068FFF7E3
:10068000BFFF0120FFF7B4FFEEE70EB500BF4FF04C
:10069000FF320121684600F0F1FA0220FFF7A0FFC7
:1006A00030480068FFF7ACFF0220FFF7A1FFEEE73C
:1006B0000EB500BF4FF0FF320121684600F0DEFAB0
:1006C0000320FFF78DFF28480068FFF799FF0320FC
:1006D000FFF78EFFEEE70EB500BF4FF0FF324FF48D
:1006E0008071684600F0CAFA0720FFF779FF5020B2
:1006F00000F058FA0720FFF77BFFEEE700F028F93B
:10070000FFF7ACFE0021194800F0C4FA1649086052
:100710000021174800F0BEFA104908600021154872
:1007200000F0B8FA0E4908600021134800F0B2FA50
:100730000C4908600021114800F0ACFA0649086035
:1007400001210948006800F08DFA4FF0FF3000F0F9
:1007500029FA00BFFEE7000010000020040000207E
:10076000080000200C00002000000020B81E00003F
:10077000C81E0000D81E0000E81E0000F81E000081
:1007800000BFFEE7012804D0022803D0032803D1CC
:1007900001E001E000E000BF00BF00BFFEE71A4833
:1007A00010B5007848B101F005FA30B1174900EBF7
:1007B000400001EB4010603810BD154810BD154ACF
:1007C00010B511690346082900D3FEE7124800EB73
:1007D0000110491C1860116100F0B4FD012010BD2A
:1007E00009490978002905D000684FF6FF71DFF844
:1007F0002CC000DF704704490978002903D0006845
:10080000DFF81CC000DF70472D0000200009002029
:10081000840C002014000020A00B00202D140000E8
:10082000551300004548804745480047FEE7FEE76E
:10083000FEE7FEE7FEE7FEE7FEE7FEE7FEE7FEE790
:10084000FEE7FEE7FEE7FEE7FEE7FEE7FEE7FEE780
:10085000FEE7FEE7FEE7FEE7FEE7FEE7FEE7FEE770
:10086000FEE7FEE7FEE7FEE7FEE7FEE7FEE7FEE760
:10087000FEE7FEE7FEE7FEE7FEE7FEE7FEE7FEE750
:10088000FEE7FEE7FEE7FEE7FEE7FEE7FEE7FEE740
:10089000FEE7FEE7FEE7FEE7FEE7FEE7FEE7FEE730
:1008A000FEE7FEE7FEE7FEE7FEE7FEE7FEE7FEE720
:1008B000FEE7FEE7FEE7FEE7FEE7FEE7FEE7FEE710
:1008C000FEE7FEE7FEE7FEE7FEE7FEE7FEE7FEE700
:1008D000FEE7FEE7FEE7FEE7FEE7FEE7FEE7FEE7F0
:1008E000FEE7FEE7FEE7FEE7FEE7FEE7FEE7FEE7E0
:1008F000FEE7FEE7FEE7FEE7FEE7FEE7FEE7FEE7D0
:10090000FEE7FEE7FEE7FEE7FEE7FEE7FEE7FEE7BF
:10091000FEE7FEE7FEE7FEE7FEE7FEE7FEE7FEE7AF
:10092000FEE7FEE7FEE7FEE7FEE7FEE7FEE7FEE79F
:1009300004480549034A054B704700005909000067
:1009400001020000E80C0020E80E0020E80C002066
:1009500006480749086070470648006840F4700080
:100960000449086001480249086070470024F40007
:100970002800002088ED00E000487047840C00202B
:1009800010B50446AFF300802046BDE81040FFF7E5
:1009900084BC70477047704701491820ABBEFEE722
:1009A000260002007546FFF7E7FFAE4605006946E0
:1009B000534620F00700854618B020B5FFF7B8FF72
:1009C000BDE820404FF000064FF000074FF0000850
:1009D0004FF0000B21F00701AC46ACE8C009ACE8D1
:1009E000C009ACE8C009ACE8C0098D467047704743
:1009F0000000000010B5002A06DA22F00042D21DE5
:100A000022F00703102203E0D21C22F003030C2281
:100A100013B19C188C4201D9012010BD024401443D
:100A20008360C0E90021C91AD018884202D810603A
:100A30000246F9E70020106010BD00000848006879
:100A4000C0010BD507480068C00707D005488038AB
:100A50000068002802DA044901200870704700008D
:100A6000FCED00E0800E00E0500000204FF06042FE
:100A7000D36F002BFCD0036BD367D36F002BFCD05C
:100A8000C07840EA0120A2F87C0070474FF0604136
:100A9000CA6F002AFCD081F87C0070470EB5802216
:100AA00000B109B110460AE001780129FAD101A983
:100AB00000F046F8042801D0002000E01020DDE915
:100AC000011203B000BD70B50D46040003D012B989
:100AD0002078012801D0802070BD204600F02CFB3A
:100AE00028B12946204600F056F8002070BD81202C
:100AF00070BD70B50C4600F0F9FE4FF0004108B132
:100B0000220C01D0084670BD058BC178A0B200F060
:100B100003F8284670BD00000A460146074810B594
:100B200000EB820050F8040C002805D000F008FD0E
:100B3000BDE8104000F0F4BC10BD0000C408002067
:100B400010B504468089002824D0608904EB800019
:100B500000690860606840B16078022805D1002112
:100B6000204600F0EDFC00F0DBFC04F10C0000BFBF
:100B7000D0E85F1F491E8AB2C0E8512F0029F7D183
:100B80006089401C80B26081E189884201D10020E7
:100B90006081042010BD10B500F0D2FCBDE810400B
:100BA00000F0BEBCEFF3058109B182207047DFF889
:100BB00008C000DF70470000C51B0000EFF3058090
:100BC00008B182207047EFF31480C00703D0DFF82C
:100BD0000CC000DF704700F0FFBF0000D91B000011
:100BE00088B0EFF3058010B1822008B07047EFF3B2
:100BF000148010F00301134806D001291BD00229EC
:100C000011D0032919D113E008A981F309880078CC
:100C1000C0070BD05FF0020080F31488BFF34F8F42
:100C2000BFF36F8F09E00078C00706D10320F3E718
:100C30000078C00701D0FF20D7E7DFF80CC000DF45
:100C4000D3E70000201F0000491C0000EFF30582DD
:100C50000AB1FFF723BFDFF808C000DF70470000CC
:100C6000B51C0000EFF305820AB1FFF742BFDFF8C1
:100C700008C000DF70470000EF1C0000EFF30583A1
:100C80000BB182207047DFF808C000DF704700001A
:100C9000151D0000EFF305820AB100207047EFF345
:100CA0001482D20702D1044A52781AB1DFF80CC07C
:100CB00000DF704701F058B82C000020691D0000CB
:100CC000DFF80CC000DFDFF80CC000DFFEE700003B
:100CD000D51D0000F11D0000DFF804C000DF7047E3
:100CE000291E0000094C4FF0FF3529462068FFF708
:100CF000ADFF02460846102AF7D1FFF7EDFF0028A6
:100D0000F3D0024608469047EFE7000018000020A5
:100D1000074801684FF0E02041610021816107210F
:100D200001610448016841F07F410160401770474C
:100D30001C1F000020ED00E0704750E8001F31B19B
:100D40000B6840E80032002AF7D108467047BFF32D
:100D50002F8FFAE710B568B161B10B3121F00302B2
:100D6000016844680B1A1B1B934205D208460968A8
:100D70000029F5D1002010BD210007D021180368FB
:100D8000C1E90032016001F1080010BD4260083085
:100D900010BD000070B50D46002812D04FF6FF714F
:100DA000084C884204D222680146104600F0F6FB47
:100DB00020684570044800F029F9BDE8704000F053
:100DC000BFBC70BD34000020540C00200F4810B58B
:100DD0000D4942680E480B680068934204D00A60CF
:100DE000CB88421E1A448A808A8880B282420AD105
:100DF00000200860054800F009F90146BDE81040F0
:100E0000024800F0EFBB10BD48000020540C002049
:100E10004400002070B5194DE86800282CD0A88A3D
:100E2000401EA882002621E0A06838B161684160B8
:100E3000606810B1A16881606660A6600F482146B5
:100E4000183800F0CFFBA08AA8826078042804D16B
:100E50000B49E08A09880844A08201206070E0689C
:100E6000E860E06808B10561E6602661A88A0028AC
:100E700002D1EC68002CD7D170BD00006C0C0020B2
:100E80004400002070B504000FD00D4DA17801265C
:100E90002868827891420CD900F0C0FB286846701F
:100EA0002046BDE8704000F04BBC064800F0AEF8AC
:100EB000F7E766702146BDE87040024800F092BB3B
:100EC00034000020540C00200321FFF763BF000012
:100ED00010B50446008B084320836278618B062A94
:100EE00018D0052A19D1084217D001EA00026283FE
:100EF00088432083204600F0CBFB01206070628B8A
:100F00000821204600F0BCFB2146BDE81040034804
:100F100000F068BB31EA0002EAD010BD540C00209A
:100F20000246154810B500EB810050F8044C002C27
:100F300021D0208B104320836278618B062A17D042
:100F4000052A18D1084216D001EA000262838843BC
:100F50002083204600F09CFB01206070628B0821FA
:100F6000204600F08DFB2046BDE81040FFF78ABF09
:100F700031EA0002EBD010BDC408002070B5034672
:100F80000C480D460468208B42B133EA000101D0C1
:100F9000062109E098432083022070BD10EA030176
:100FA00001D06183F6E7052163832846FFF7F2FE4F
:100FB000012070BD34000020814202D342688A4281
:100FC00001D80120704702680A60BFF35F8F50E8C4
:100FD000003F0A689A42F6D140E80012002AF2D196
:100FE0000020704768B161B10022083902E0024672
:100FF000006830B18842FAD12AB100681060002040
:1010000070470120704700214160F8E701464068C1
:1010100042684A600B780022022B05D0012B03D0D6
:10102000032B01D04260704743680BB19960426066
:1010300082607047810700D00020704770B5044679
:1010400000201546207001226270A17084F82410DF
:101050006060A060E06020612062A082E082208366
:10106000608384F82500E08C18B90548FFF765FE19
:10107000E06229462046BDE8704000F01DB800003F
:10108000D001002008B1082901D201207047014495
:10109000091F002201600A6042601046704700008C
:1010A00003480021016003490988C180704700009E
:1010B00048000020101F000070B5C28C1C4D930822
:1010C00002D12A88C2F38D03C26A02EB830254075D
:1010D00000D5121F4FF0807442E902140024264606
:1010E000B2F1400242F82460641C0E2CFAD3C469A9
:1010F0001462826201632968C90014D5112B12D9C8
:101100004FF0FF31103B11EB53014FF0CC3305D0C2
:1011100042F8043C42F8083D491EF9D1C16A121F49
:101120008A4200D91360C06A0249016070BD0000A4
:101130000C1F0000A52E5AE2C1898089081A704749
:10114000012202700022427082704260028142815C
:10115000103982818908C181704700002DE9F04172
:10116000044640680E464FF0000804F10C05E8B351
:101170006078012701283ED0022813D003285CD1D3
:101180000846FFF7DAFD050057D02046FFF73EFF7F
:101190000446294600F06EFA6770204600F078FA9F
:1011A000214621E02046FFF731FF0646002100F0EE
:1011B00061FA2189F06904EB81010861D5E85F0FCC
:1011C000401C81B2C5E8501F0028F7D12089401C7F
:1011D00080B22081E189884201D1A4F8088077702B
:1011E000304600F055FA3146174800E00CE0BDE803
:1011F000F04100F0F7B92046FFF708FF04463246F9
:10120000102100F03DFAC7E7A089E189884216D293
:10121000208904EB80000661D5E85F0F401C81B295
:10122000C5E8501F0028F7D12089401C80B22081DA
:10123000E189884201D1A4F80880BDE8F081BDE8C9
:10124000F0410320FFF79EBA540C002070B504460D
:10125000808915460026C0B3608904EB80000069D0
:1012600008606089401C80B26081E189884200D1B9
:101270006681606810B1607802280BD014F10C040C
:10128000D4E85F0F401E81B2C4E8501F0028F7D198
:10129000002070BD2046FFF7B9FE0546002100F092
:1012A000E9F92189E86904EB810108612089401C82
:1012B00080B22081E189884200D12681284600F051
:1012C000E7F92846FFF7DEFDE2E7FFE73DB10B480F
:1012D000626801682AB1204600F084F908E0012024
:1012E00070BD616001684E600068846001206070BC
:1012F00008212846FFF74EFDF1E7000034000020EA
:10130000002814D0411C13D00C4A4FF6FE719042B5
:101310000CD800EB4002C2EBC0120948036803EB93
:10132000C202521EB2FBF3F0884204D9084670474D
:101330004FF6FF70704780B27047000000093D0013
:101340002C1F000003210170002141804160816059
:10135000C16070472DE9F0410446408820B1314D0D
:10136000A1682A68914202D0FF20BDE8F081401EAA
:101370000004000C608053D12968086AA04209D19A
:10138000E068086208E0C268A24202D1E268C26076
:1013900002E010460028F6D191F824000A6A06E01F
:1013A00053681BB19B78834200D91846D268002A43
:1013B000F6D18870DFF870806168012611B320468D
:1013C000FFF724FE0746002100F054F9384600F0EC
:1013D0005FF96680A760386AE0603C622968D8F8E7
:1013E00004008A788078824201D3384616E00E489D
:1013F00000F0F8F839460C4800F0F4F82868467018
:101400007E700AE0D8F804108A782968824207D9E9
:10141000054800F0E7F8286846700020FFF732FD25
:101420000020A2E734000020540C002070B51C4DB1
:101430000E4604464188286861B1A268824210D1F4
:10144000A1F57F40FF3803D0491C6180002070BDAA
:10145000FF2070BDA060016AE1600462012060802D
:10146000F4E776B191788078814203D29070A068D9
:1014700000F0DEF8606830B12046296800F0B2F86C
:1014800008E0012070BD286860602968002048607D
:101490002868846009213046FFF77CFCF1E70000F2
:1014A0003400002070B51B480121026851700068AB
:1014B00000F0B4F8184D6C7818E000BF05EBC401DB
:1014C00048680278EAB1012A20D000F00DF9E878E6
:1014D000641C844200D100240F48801CD0E84F1FB8
:1014E000491EC9B2C0E8421F002AF7D1A8780028D7
:1014F000E4D16C700948FFF789FDBDE8704000F049
:101500001FB9098989B2FFF7E3FCE0E78968FFF7B3
:1015100025FEDCE73400002040080020540C0020A9
:101520000548017811B101214170704703494FF01E
:1015300080500860704700003C00002004ED00E08F
:10154000F0B4154DAB1CEE784FEA0507D3E84F2FEA
:10155000B24202D1BFF32F8F11E0521CD4B2C3E8C4
:10156000424F002AF2D100BFD7E84F2F541CB4429B
:1015700000D10024E4B2C7E8434F002BF4D1EB784C
:10158000934205D905EBC202C2E90101F0BC7047E4
:10159000F0BC0220FFF7F6B840080020104A10B552
:1015A000D368ABB113469B8A03E08CB12246A48A70
:1015B0002344D4688B42F8D3C460D0600261C4680D
:1015C00004B12061591A8182908A401A908210BD1C
:1015D0000024C460D060C91A02619182848210BD67
:1015E0006C0C002030B502780023022A03D0012AB7
:1015F00001D0032A00D101238C7800E01046426814
:1016000012B19578A542F9D24A6041601BB102B18E
:101610009160886030BD0020FBE7000003494A6804
:10162000426000228260486070470000540C002035
:1016300010B5836804462BB9607801280ED1084B99
:1016400003E09B6818780028FBD0204600F034F8AF
:101650002146BDE810401846FFF7C4BF10BD00008A
:10166000540C002090F82510806A09B16030704752
:101670002030704710B50C46FFF7F4FF046010BD32
:1016800070B515460C46FFF7EDFFC0E9004570BD8B
:1016900010B5016900290ED0C268CA60C368002273
:1016A0003BB18B8A848A23448B82C3681961C260F0
:1016B00000E08A82026110BD816839B142684A60E7
:1016C0004168002901D0806888607047054906E0BC
:1016D0004A68824202D1406848607047114600293A
:1016E000F6D17047540C002010B5416881B1FFF766
:1016F0008DFC0446FFF7CCFF0120607001462046B8
:10170000FFF7B8FF2146BDE810400348FFF76ABF66
:101710004188491C418010BD540C002006480068D7
:10172000D0E90A10814203D300680449884202D0FC
:101730000120FFF727B8704734000020A52E5AE299
:101740000749022248604270064A1278002A05D0F2
:1017500006C98A4202D0C078FFF798B970470000E6
:10176000340000205000002070B5FFF767F900201A
:101770000446204A204902E042F82040401C0B88E1
:101780009842F9D31D48342201881D48FFF732F9E9
:101790001C48008880B240F000421B4801681B488A
:1017A000FFF728F91A48082201881A480068FFF74D
:1017B00021F9194DFF20194AE870EC8400212846D0
:1017C000FFF73CFC16480421017044601548017085
:1017D000C460046184821448154905600220687061
:1017E0001248047044700978C170BDE87040FFF77A
:1017F00057BC0000C4080020081F0000341F000070
:10180000580000200C1F0000381F0000D0010020ED
:101810005C1F000020000020200C00208107000039
:10182000540C00206C0C00203400002040080020E4
:10183000401F00001B4810B5016841F47F010160A2
:1018400000684FF07F4101EA00201649C043143977
:10185000B0FA80F00968C0F10800C1F302218142AA
:1018600000D3481C0F49091F0B686FF0807282403B
:1018700063F317020A60FFF74BFA0B490028086070
:101880000EDB00F1E021FF2281F8002400F01F02AE
:10189000012191404009800000F1E020C0F80011D2
:1018A00010BD000020ED00E0400000200C4810B505
:1018B0000268012151700068FFF7B0FEFFF786FA59
:1018C00008480168491C0160FFF7A4FA00F0B8FA63
:1018D0000548FFF79BFBBDE81040FFF731BF000054
:1018E0003400002044000020540C0020002805D0C3
:1018F000810702D10178002900D000207047000044
:1019000030B50B4C0023626805E095688D4204D821
:1019100013461268491B002AF7D10260816012B198
:101920009568691A91600BB1186030BD606030BD78
:101930002C0000202DE9F0411E46174680460D463A
:1019400011F0FF0F00D14D1C1848FFF7F6F9041EE7
:1019500016D0280AE762E084E9B242462046E661F2
:10196000FFF76CFB01251248124905E000EB8502E8
:1019700052F8042C32B16D1C0A889542F6D9002029
:10198000BDE8F081002DFAD000EB850040F8044C52
:101990000948E570007818B101212046FFF766F884
:1019A0002046FFF76FFA2846EAE7000058000020BB
:1019B000C4080020081F0000500000202DE9F05F3F
:1019C000584DDFF85891DFF8588129684FF0010A27
:1019D000002618B1CA78AB46824243D14E70FEF75A
:1019E00074FC29688862FFF799FE2868046A1FE082
:1019F0006068C0B12046FFF709FB07460021FFF7EA
:101A000039FE3846FFF744FE87F801A039464648BC
:101A1000FFF7E8FDE168A4F802A0A760386AE0607B
:101A20003C620C4604E0E0686680A660E66004461E
:101A3000002CDDD12868C27808EB820141F8046CE3
:101A4000C16A3A48FFF7B8FA2868C66299F80010E8
:101A500011B10021FFF70AF835482968FFF7ACFA01
:101A60002E6056E03349098888420CD808EB80087C
:101A700058F8045C3DB12846FFF71EFE2846FFF7E4
:101A800007FE2C6A22E0FF20BDE8F09F6068C0B12D
:101A90002046FFF7BBFA07460021FFF7EBFD38466B
:101AA000FFF7F6FD87F801A039461F48FFF79AFDBA
:101AB000E168A4F802A0A760386AE0603C620C46C6
:101AC00004E0E0686680A660E6600446002CDDD194
:101AD00048F8046C1548E96AFFF76EFAEE6299F867
:101AE000000018B100212846FEF7C0FF2946104823
:101AF000FFF762FA0C48DBF8001040688B788278B8
:101B00009A4209D981F801A00748DBF80010FFF7D5
:101B100069FD0020FFF7B6F90020B5E7500000206E
:101B2000C408002034000020540C0020D001002004
:101B300058000020081F000070B51A4D80B11A4AE5
:101B4000128890421FD8194A02EB800050F8044CCA
:101B5000CCB1A17084F824102868A04205D014E00C
:101B600028688170286880F82410114840688078BF
:101B7000884215D90E482968FFF734FD29680120ED
:101B8000487000200AE0FF2070BD2046FFF750FD9E
:101B90006078012804D10648FFF738FAFFF772F998
:101BA000002070BD34000020081F0000C408002081
:101BB000540C002002480068002800D0C07870470C
:101BC0003400002010B5002804D0FFF799FBFFF780
:101BD0007BF9402010BD000010B5134C207860B98F
:101BE0001248400705D1124801681048FFF74AFA29
:101BF00008B1852010BDFFF7B7FD0E49FF20096829
:101C00008870207858B900210B4800F041F80B4942
:101C1000086000210A4800F0A7F80A49086001207E
:101C200020700020607010BD2C0000209006002065
:101C30003C1F000034000020541F0000180000204A
:101C4000441F00001400002070B50F4D687808B1E3
:101C5000002070BD0D4C206890F824100020FFF784
:101C60006BFF2068C178FF2903D1816A203181F39D
:101C70000988616811B9606000202060FFF7DAFD13
:101C800001206870E4E700002C00002034000020F0
:101C900010B5040005D0216819B1606808B1027858
:101CA0000AB1002010BD8900103189B2FFF748FA4F
:101CB000606810BD3EB504000D464FF0800012D0A4
:101CC000217801290FD12846FFF71AFB024620464A
:101CD00001A9FFF7BBFA012801D0102003E00DB1E4
:101CE000402000E00020DDE9011203B030BD70B5F6
:101CF0000C46FFF7FBFD4FF0004108B1220C01D06C
:101D0000084670BD058BC178A0B2FFF709F92846D7
:101D100070BD000070B504460D46000C01D0862051
:101D20001EE008462CB1FFF7EBFA0146A0B20122F3
:101D300005E0FFF7E5FA014600224FF6FF70FFF7D6
:101D40001DF9022802D04DB1402008E008200CB156
:101D5000214605E003490968498B01E00020002184
:101D6000324670BD3400002070B50E46040029D004
:101D7000206838B3606810F1030F23DB032821DCEF
:101D8000E16829B11048FEF7E5FF05001AD000E030
:101D900000256068E168001D40EA012133462A46BB
:101DA0002068FFF7C7FD40B1084901EB80000849F2
:101DB00050F8040C826A516370BD1DB12946024877
:101DC000FFF710F9002070BD90060020C408002025
:101DD000C10C000010B5FFF7EDFE002804D0034948
:101DE00001EB800050F8040C10BD0000C408002076
:101DF00010B5FFF77BFD18B1C18C19B1C46A02E0C0
:101E0000802010BD0024C078FFF7D8FDFF2806D041
:101E10001CB121460348FFF7E5F8002010BD8120E2
:101E200010BD00009006002010B5FFF703F920B1A7
:101E300041690A680169104610BD0020014610BDC5
:101E40002DE9F041134E7468002C1CD0A068124F8D
:101E5000401E4FF00108A06012E02546246874601F
:101E6000002229463868FEF72EFE10B10420FEF746
:101E700089FC6879012808D085F80480002C02D0FC
:101E8000A0680028E9D0BDE8F0812846E968FFF79E
:101E900037FDF3E72C000020180000204FF04070C1
:101EA000E1EE100A7047000002000000010000008F
:101EB00010000000010000003F06000000000000CC
:101EC00001000000000000006506000000000000A6
:101ED00001000000000000008B0600000000000070
:101EE0000100000000000000B1060000000000003A
:101EF0000100000000000000D70600000000000004
:101F0000010000000000000007000000C8000201FE
:101F1000050001000024F400100000007F3E0000D6
:101F2000010000000200010052000400E80300006C
:101F30000000000078010000C0040000B0010000B3
:101F400010000000E50C000002000000010000008D
:101F5000C800000004000000E008002000000000AD
:101F6000FD0600000000000001000000C8000000A5
:101F7000901F000000000020540000003C02000000
:101F8000E41F000054000020940E000058020000DE
:101F90000000000000000000000000000000000041
:101FA0000000000000000000000000000000000031
:101FB00000000000000000000024F4000000000009
:101FC0000000000000000000000000000000000011
:101FD0000000000000000000000000000000000001
:041FE00000000000FD
:0400000500000825CA
:00000001FF
