:020000040000FA
:1000000060040020090200001D0200001F02000021
:100010002102000023020000250200000000000071
:1000200000000000000000000000000027020000A7
:1000300029020000000000002B0200002D02000039
:100040002F0200002F0200002F0200002F020000EC
:100050002F0200002F0200002F0200002F020000DC
:100060002F0200002F0200002F0200002F020000CC
:100070002F0200002F0200002F0200002F020000BC
:100080002F0200002F0200002F0200002F020000AC
:100090002F0200002F0200002F0200002F0200009C
:1000A0002F0200002F0200002F0200002F0200008C
:1000B0002F0200002F0200002F0200002F0200007C
:1000C0002F0200002F0200002F0200002F0200006C
:1000D0002F0200002F0200002F0200002F0200005C
:1000E0002F0200002F0200002F0200002F0200004C
:1000F0002F0200002F0200002F0200002F0200003C
:100100002F0200002F0200002F0200002F0200002B
:100110002F0200002F0200002F0200002F0200001B
:100120002F0200002F0200002F0200002F0200000B
:100130002F0200002F0200002F0200002F020000FB
:100140002F0200002F0200002F0200002F020000EB
:1001500000000000000000002F0200002F0200003D
:100160002F0200002F020000000000002F020000FC
:100170002F0200002F0200002F0200002F020000BB
:100180002F0200002F0200002F0200002F020000AB
:100190002F0200002F0200002F0200002F0200009B
:1001A0002F0200002F0200002F0200002F0200008B
:1001B000000000000000000000000000000000003F
:1001C00000000000000000002F0200002F020000CD
:1001D0002F0200002F0200002F0200002F0200005B
:1001E000000000000000000000000000000000000F
:1001F000000000002F0200002F020000000000009D
:1002000000000000000000004EF68850CEF2000012
:10021000016841F47001016000F00AB8FEE7FEE7F2
:10022000FEE7FEE7FEE7FEE7FEE7FEE7FEE7FEE7A6
:1002300000F002F800F036F80AA090E8000C8244C2
:100240008344AAF10107DA4501D100F02BF8AFF29F
:10025000090EBAE80F0013F0010F18BFFB1A43F0A4
:1002600001031847180C0000280C0000002300248C
:1002700000250026103A28BF78C1FBD8520728BFB6
:1002800030C148BF0B607047782900F09581632921
:1002900000F06182002070471FB500F0D5FD1FBD42
:1002A00010B510BD00F063FA1146FFF7F5FF00F03E
:1002B0002DFD00F081FA03B4FFF7F2FF03BC00F05C
:1002C00089FA000072B6704762B67047EFF310808B
:1002D00072B6704780F31088704730BF704702488D
:1002E0000249014A024B7047600000206004002070
:1002F000600000206049086820F0805008605F4975
:10030000086820F0040020F0080008605C490868D4
:1003100010F48070FBD05849086820F4700000F594
:10032000401020F0706000F1407008605549086886
:1003300020F4700000F54010086053490868534BE2
:1003400020EA03004FF00003184440F2FF3320EA94
:10035000030000F1600008604D49086820F4F8507F
:1003600000F1000020F01F0000F104000860464981
:10037000086840F4000008603F49086840F0804089
:10038000086044490868444B20EA0300434A444B50
:100390009A4200D97047434B9A4202D9424B1844C3
:1003A0001FE03E4B9A4202D9404B184419E0404BA3
:1003B0009A4202D93F4B184413E03F4B9A4202D96C
:1003C00000F1C2100DE03D4B9A4202D900F18110BC
:1003D00007E03A4B9A4202D300F1201001E000F10D
:1003E0000000086036494FF000024FF6FF730868BE
:1003F00010F0010004D102F101029A42F7D37047D4
:100400001D49086840F2FF3320EA030000F10500AF
:1004100040F0004040F080500860704729494FF09C
:100420000000086028496FF07F40086027494FF0BE
:100430000000086023494FF005000860704722491A
:10044000A0F1010008601F490B6813F48033FBD052
:10045000704710B5040004D01D48FFF7F0FF641E7C
:10046000FAD810BD10B5040005D04FF05000FFF7CA
:10047000E6FF641EF9D810BDB0E00F407CE00F40ED
:1004800050E00F4044E10F4060E10F4000FC0F00DE
:1004900064E10F40C0E00F40EF03EF0300B4C40479
:1004A000000E270700E1F50585018501440144019F
:1004B0000087930303010301005A62020024F40041
:1004C00068E10F4010E000E014E000E018E000E018
:1004D000803801000FB41CB5074B06AA7B4469465F
:1004E0000090059800F015F90020694600F024F905
:1004F0001CBC5DF814FB0000590200002DE9F0411E
:100500000E460446002020622046E168884730B34A
:10051000252805D0D4E901219047206A401CF2E744
:10052000E168204600278847050018D0A5F1410062
:10053000192802D820354FF4006732462946204654
:100540002760FFF7A1FE40B1012804D0F61D26F078
:1005500007060836D8E7361DD6E72846DAE7206AC8
:10056000BDE8F08170B50C460546012A05D0287813
:10057000800600D5EA69002302E0012305E05B1C48
:10058000934202D2E05C0028F9D1A869E618C01AAB
:10059000A861286A184428622846AFF3008004E066
:1005A000D5E9012114F8010B9047B442F8D328464D
:1005B000AFF3008070BD000070B504460D462146C3
:1005C0001068AFF300802188090502D50F4A7A44EC
:1005D00002E00E4A7A440E32002104F1240305E0C1
:1005E00000F00F060009965D5E54491C0028F7D103
:1005F00020780023000704D5702D02D009B1022312
:1006000011322046BDE8704000F024B88008000098
:1006100010B5431C02E010F8011B71B18107FAD13B
:100620004FF0013202C88C1A8C4314EAC211F9D07F
:10063000C01A0A0603D0C01E10BDC01A10BD0A049D
:1006400001D0801E10BD0902FCD0401E10BD7047B5
:10065000704770472DE9F0470D469946924604468B
:1006600000F124080168880604D5E06921F0100132
:10067000216000E00120A84201DD471B00E00027C7
:10068000A1697A1902EB0900081AA0612078C00656
:1006900002D42046AFF30080002608E0D4E901210F
:1006A0001AF806009047206A401C761C20624E45CE
:1006B000F4DB2078C0060AD52046AFF3008006E0C0
:1006C000D4E9012130209047206A401C2062381E66
:1006D000A7F10107F4DC07E0D4E9012118F80500CF
:1006E0009047206A401C2062281EA5F10105F3DC1A
:1006F0002046AFF300802078000602D50220BDE836
:10070000F0870120FBE7000001694A1C02610878BC
:10071000704700B58FB0CDE9013100210591054941
:100720007944CDE9031011466846FFF7E7FE0FB0A4
:1007300000BD0000E5FFFFFF0A6802F8010B0A6038
:10074000704710B5436913B1AFF3008001E0FFF7C4
:1007500009FF012010BD127800F124010A70002267
:100760004A700122EDE711684FF0FF32E9E7754664
:1007700000F02CF8AE4605006946534620F007000D
:10078000854618B020B5FFF7AAFDBDE820404FF020
:1007900000064FF000074FF000084FF0000B21F06B
:1007A0000701AC46ACE8C009ACE8C009ACE8C00938
:1007B000ACE8C0098D46704710B50446AFF3008021
:1007C0002046BDE81040FFF776BD000000487047A6
:1007D0000000002001491820ABBEFEE72600020001
:1007E000704710B50446012C06D0022C08D0032C0B
:1007F0000AD0042C10D10BE0E02000F0FFF90FE04C
:10080000D02000F0FBF90BE0B02000F0F7F907E092
:10081000702000F0F3F903E0F02000F0EFF900BFE2
:1008200000BF10BD3148006841F6047108432F49EC
:10083000086000BF2E48006800F4F850B0F5F85F7B
:10084000F8D100202B4908602B4908602B4908602B
:100850002B4908602B4908602649091D0860264974
:10086000091D08602549091D08602549091D086002
:100870002449091D086024490860FF2023490860B5
:10088000002023490860F7202249086003202249FC
:10089000086000201C49203108601C492031086094
:1008A0001B49203108601B49203108601A4920315A
:1008B000086003200F490C390860FF200E490C39ED
:1008C00008600F200D490C390860F7200C490C39DD
:1008D000086003200B490C39086006491839086084
:1008E0000F200649183908607047000008E60F40DD
:1008F00008EA0F402805064028150640282506402E
:1009000028350640284506400004064000140640ED
:1009100000240640003406400044064010B504465A
:10092000204600F05DF910BD10B50446204600F0E9
:1009300043F910BD10B504462046FFF7F5FF01202E
:10094000FFF7ECFF0620FFF78DFD0520FFF7E6FF20
:100950000620FFF787FD0120FFF7E0FF2820FFF7C3
:1009600081FD4FF4C860FFF77DFD10BD10B5044652
:100970002046FFF7D9FF0020FFF7D0FF0620FFF742
:1009800071FD0420FFF7CAFF0620FFF76BFD002072
:10099000FFF7C4FF2820FFF765FD10BD10B540200C
:1009A000FFF7E4FF0E20FFF7C5FF1B20FFF7C2FF94
:1009B0001120FFF7BFFF1120FFF7BCFF1120FFF749
:1009C000B9FF1120FFF7B6FF1120FFF7B3FF1F207B
:1009D000FFF7B0FF4820FFF7C9FF0E20FFF7AAFF7F
:1009E0001B20FFF7A7FF1120FFF7A4FF1120FFF73F
:1009F000A1FF1120FFF79EFF1120FFF79BFF1F2093
:100A0000FFF798FF1F20FFF795FF5020FFF7AEFF7D
:100A10000E20FFF78FFF1B20FFF78CFF1120FFF741
:100A200089FF1120FFF786FF1120FFF783FF1F20AA
:100A3000FFF780FF1F20FFF77DFF1F20FFF77AFFE2
:100A40005820FFF793FF0E20FFF774FF1B20FFF7DE
:100A500071FF1120FFF76EFF1120FFF76BFF1F20C2
:100A6000FFF768FF1F20FFF765FF1F20FFF762FFFA
:100A70001F20FFF75FFF6020FFF778FF0E20FFF7D2
:100A800059FF1B20FFF756FF1120FFF753FF1F20D0
:100A9000FFF750FF1F20FFF74DFF1F20FFF74AFF12
:100AA0001F20FFF747FF1F20FFF744FF6820FFF7D5
:100AB0005DFF0E20FFF73EFF1B20FFF73BFF1F20CF
:100AC000FFF738FF1F20FFF735FF1F20FFF732FF2A
:100AD0001F20FFF72FFF1F20FFF72CFF1F20FFF71E
:100AE00029FF7020FFF742FF0E20FFF723FF1F2092
:100AF000FFF720FF1F20FFF71DFF1F20FFF71AFF42
:100B00001F20FFF717FF1F20FFF714FF1F20FFF71D
:100B100011FF1F20FFF70EFF7820FFF727FF0420AB
:100B2000FFF708FF0E20FFF705FF0E20FFF702FF7B
:100B30000E20FFF7FFFE0E20FFF7FCFE1F20FFF741
:100B4000F9FE0020FFF7F6FE0420FFF7F3FE10BDCC
:100B500010B50020FFF7E2FE1020FFF77AFC3820E6
:100B6000FFF704FF0C20FFF701FF0120FFF7FEFE57
:100B70000620FFF7FBFE4FF4C860FFF773FC10BDC3
:100B800010B500F025F80446072C0BD00B2C07D02D
:100B90000D2C03D00E2C07D1012010BD0220FCE744
:100BA0000320FAE70420F8E70020F6E70148006890
:100BB00070470000FC030640034A1268002101430D
:100BC000024AC2F8FC137047FC13064000100640AE
:100BD0000248006800F00F0070470000FC23064048
:100BE000044A126802F0F8010143034AC2F8FC13F8
:100BF00070470000FC33064000300640044A12688B
:100C000002F00F010143034AC2F8FC1370470000D1
:100C1000FC33064000300640044A126802F0FC0132
:100C20000143034AC2F8FC1370470000FC4306402E
:100C30000040064070B500250120FFF7D2FDFFF708
:100C40009FFF04468CB1012C06D0022C06D0032C49
:100C500006D0042C08D105E0372505E0342503E053
:100C6000312501E0232500BF00BF0220FFF7B9FDB9
:100C7000FFF786FF044694B18DB9012C06D0022CF3
:100C800006D0032C06D0042C08D105E0382505E059
:100C9000352503E0322501E0302500BF00BF0320E9
:100CA000FFF79FFDFFF76CFF044694B18DB9012C4F
:100CB00006D0022C06D0032C06D0042C08D105E067
:100CC000392505E0362503E0332501E02A2500BF5C
:100CD00000BF0420FFF785FDFFF752FF044694B1E3
:100CE0008DB9012C06D0022C06D0032C06D0042C82
:100CF00008D105E0412505E0422503E0432501E058
:100D0000442500BF00BF284670BD00001FB5FFF797
:100D1000F1FAFFF783FBFFF785FDFFF719FFFFF7F8
:100D20003DFE41A16846FFF7D5FB8020FFF71EFE80
:100D3000002504E01DF80500FFF7FCFD6D1C68466A
:100D4000FFF766FCA842F5D80020FFF7F3FD02206C
:100D5000FFF7F0FD0420FFF7EDFD0620FFF7EAFDA9
:100D600061E0FFF767FF0446412C05D0422C03D019
:100D7000432C01D0442C02D10120FFF74DFF232C3E
:100D800005D0312C03D0342C01D0372C02D10220D5
:100D9000FFF742FF302C05D0322C03D0352C01D088
:100DA000382C02D10320FFF737FF2A2C05D0332C33
:100DB00003D0362C01D0392C02D10320FFF72CFFB1
:100DC00004B93F24C020FFF7D1FD234622461AA1D3
:100DD0006846FFF77FFB002504E01DF80500FFF7DC
:100DE000A9FD6D1C6846FFF713FCA842F5D8FFF774
:100DF000DDFE012802D1FFF70FFF14E0FFF7D6FE5A
:100E0000022802D1FFF708FF0DE0FFF7CFFE18B967
:100E10000320FFF701FF06E0FFF7C8FE032802D119
:100E20000020FFF7F9FE9CE7454C4635322D446122
:100E30004C757A3A000000004B65793A205B2558E2
:100E40005D2D5B25635D00004FF04070E1EE100A00
:100E500070473031323334353637383941424344C4
:100E60004546403058003031323334353637383922
:100E70006162636465664030780000008C0E00009B
:0C0E800000000020600400006C02000074
:0400000500000209EC
:00000001FF
