:020000040000FA
:10000000D00C0020010200001502000017020000C1
:10001000190200001902000019020000000000008F
:1000200000000000000000000000000019020000B5
:10003000190200000000000019020000190200006F
:100040001902000019020000190200001902000044
:100050001902000019020000190200001902000034
:100060001902000019020000190200001902000024
:100070001902000019020000190200001902000014
:100080001902000019020000190200001902000004
:1000900019020000190200001902000019020000F4
:1000A00019020000190200001902000019020000E4
:1000B00019020000190200001902000019020000D4
:1000C00019020000190200001902000019020000C4
:1000D00019020000190200001902000019020000B4
:1000E00019020000190200001902000019020000A4
:1000F0001902000019020000190200001902000094
:100100001902000019020000190200001902000083
:100110001902000019020000190200001902000073
:100120001902000019020000190200001902000063
:100130001902000019020000190200001902000053
:100140001902000019020000190200001902000043
:100150000000000000000000190200001902000069
:10016000190200001902000000000000190200003E
:100170001902000019020000190200001902000013
:100180001902000019020000190200001902000003
:1001900019020000190200001902000019020000F3
:1001A00019020000190200001902000019020000E3
:1001B00019020000190200001902000019020000D3
:1001C00019020000190200001902000019020000C3
:1001D00019020000190200001902000019020000B3
:1001E00019020000190200001902000019020000A3
:1001F0001902000019020000190200001902000093
:100200004EF68850CEF20000016841F470010160A2
:1002100000F004B8FEE7FEE7FEE7000000F002F899
:1002200000F051F80AA090E8000C82448344AAF13F
:100230000107DA4501D100F046F8AFF2090EBAE83D
:100240000F0013F0010F18BFFB1A43F0010318470A
:1002500008280000282800000A4410F8014B14F078
:100260000F0508BF10F8015B240908BF10F8014B07
:100270006D1E05D010F8013B6D1E01F8013BF9D150
:10028000641E03D0641E01F8015BFBD19142E4D3EC
:10029000704700000023002400250026103A28BFE4
:1002A00078C1FBD8520728BF30C148BF0B607047E8
:1002B000632900F0BE80002070471FB501F042FEA8
:1002C0001FBD10B510BD00F0C0F81146FFF7F5FFD7
:1002D00001F01EFB00F0DEF803B4FFF7F2FF03BCF1
:1002E00000F0E6F802480349014A034B704700005A
:1002F000D00A0020D00C0020D00A00200FB41CB57A
:10030000074B06AA7B4469460090059800F06FF8F9
:100310000020694600F07EF81CBC5DF814FB00006C
:100320000D0100002DE9F0410E4604460020206238
:100330002046E168884730B3252805D0D4E901215B
:100340009047206A401CF2E7E16820460027884772
:10035000050018D0A5F14100192802D820354FF426
:1003600000673246294620462760FFF7A1FF40B1CB
:10037000012804D0F61D26F007060836D8E7361DFA
:10038000D6E72846DAE7206ABDE8F08170B50C466A
:100390000546012A05D02878800600D5EA690023A1
:1003A00002E0012305E05B1C934202D2E05C0028DE
:1003B000F9D1A869E618C01AA861286A1844286209
:1003C0002846AFF3008004E0D5E9012114F8010BC1
:1003D0009047B442F8D32846AFF3008070BD704711
:1003E0007047704701694A1C02610878704700B580
:1003F0008FB0CDE901310021059105497944CDE95E
:10040000031011466846FFF78DFF0FB000BD0000D6
:10041000E5FFFFFF0A6802F8010B0A60704710B59C
:10042000436913B1AFF3008001E0FFF7AFFF012094
:1004300010BD127800F124010A7000224A700122D6
:10044000EDE711684FF0FF32E9E7754600F02CF850
:10045000AE4605006946534620F00700854618B0B1
:1004600020B5FFF73FFFBDE820404FF000064FF0FA
:1004700000074FF000084FF0000B21F00701AC46D9
:10048000ACE8C009ACE8C009ACE8C009ACE8C009F8
:100490008D46704710B50446AFF300802046BDE896
:1004A0001040FFF719BF0000004870476C0A002099
:1004B00001491820ABBEFEE726000200704700008D
:1004C00010B50446012C06D0022C0AD0032C0ED005
:1004D000042C18D111E0E022F0210F4800F063F95C
:1004E00017E0D022F0210C4800F05DF911E0B022B5
:1004F000F021094800F057F90BE07022F02106487E
:1005000000F051F905E0F0221146034800F04BF9E4
:1005100000BF00BF10BD000000300640D0F800341E
:1005200012F0010F14BF0B438B43C0F8003412F0DC
:10053000020FD0F8202414BF114322EA0101C0F8B1
:10054000201470472DE9F04F574ED6F800C0574F92
:10055000DFF85C810CEA070CC44524D04FF0000C96
:100560004FF001094FF0030AC2F3411509FA0CF4E8
:100570000C4211D0D0F8C4BF4FEA4C040AFA04FE72
:100580002BEA0E0BC0F8C4BFD0F8C4BF05FA04F4C0
:100590004BEA0404C0F8C44F0CF1010C0CF0FF0C42
:1005A000BCF1080FE2D3D0F800C512F0010F14BF60
:1005B0004CEA010C2CEA010CC0F800C5D0F804C5C7
:1005C00012F0020F14BF4CEA010C2CEA010CC0F827
:1005D00004C5D0F808C512F0040F14BF4CEA010C92
:1005E0002CEA010CC0F808C5D0F818C512F0080FA5
:1005F00014BF4CEA010C2CEA010CC0F818C5D6F85F
:1006000000C00CEA070CC44508D012F0100FD0F857
:100610003C250CBF8A430A43C0F83C25D0F80C2582
:1006200013F0010F14BF0A438A43C0F80C25D0F819
:10063000102513F0020F14BF0A438A43C0F8102597
:10064000D0F8142513F0040F14BF0A438A43C0F8EE
:100650001425D0F81C2513F0080F14BF0A438A4351
:10066000C0F81C2532683A40424511D0D0F84425E4
:1006700013F4007F0CBF8A430A43C0F84425D0F826
:10068000402513F4407F14BF0A438A43C0F8402535
:10069000D0F82825002B0CBF114322EA0101C0F835
:1006A0002815BDE8F08F000000E00F400000FF704B
:1006B000000005100E4AC0F30741D26E01238B40A3
:1006C0001A420C4A1ABF02EBC101496852F83110B4
:1006D000020AD1F82C354FF00F0C0CFA02FC00F096
:1006E0000F0023EA0C0390401843C1F82C05704713
:1006F00000E00F40E825000050F82100704730B5B9
:100700000C4605460022FFF709FF21462846BDE8B2
:10071000304008230122FFF715BF30B50C460546CF
:1007200008230122FFF70EFF21462846BDE830408E
:100730000122FFF7F3BE30B50C4605460222FFF753
:10074000EDFE21462846BDE8304009230122FFF78F
:10075000F9BE30B50C4605460222FFF7DFFE214602
:100760002846BDE8304008230122FFF7EBBE30B534
:100770000C4605460222FFF7D1FE21462846BDE879
:10078000304008230122FFF7DDBE30B50C46054698
:100790000222FFF7C3FE21462846BDE83040082369
:1007A0000122FFF7CFBE40F82120704710B5144852
:1007B00000F032FF134800F02FFF00BF104800F098
:1007C0003FFF0028FAD00F4800F03AFF0028F5D08C
:1007D0000D48FFF76FFF0D48FFF76CFF04210C4831
:1007E000FFF7B7FF08210A48FFF7A5FF00F060FEFA
:1007F000044600222146074800F0CEF810BD000054
:10080000002000F0010800F002080100020C0100C5
:1008100000500040000002402DE9F04107460E461E
:100820001446002239461B4800F0E0F821781948A8
:1008300000F0B0F80321174800F0AAF800BF1548EF
:1008400000F0A0F80028FAD101250FE0615D114801
:1008500000F0A0F801210F4800F09AF800BF0D4801
:1008600000F090F80028FAD1681CC5B2701EA842AA
:10087000ECDC215C074800F08DF80521054800F00C
:1008800087F800BF034800F07DF80028FAD1BDE8E2
:10089000F08100000000024010B5144800F0BCFEDA
:1008A000134800F0B9FE00BF104800F0C9FE002850
:1008B000FAD00F4800F0C4FE0028F5D00D48FFF72D
:1008C000F9FE0D48FFF7F6FE01210C48FFF741FF46
:1008D00002210A48FFF72FFF00F0EAFD044600223C
:1008E0002146074800F058F810BD0000072000F02E
:1008F000030800F00200030002040300007000403F
:1009000000300C402DE9F04107460E461446002207
:1009100039461B4800F06AF82178194800F03AF887
:100920000321174800F034F800BF154800F02AF8FA
:100930000028FAD101250FE0615D114800F02AF886
:1009400001210F4800F024F800BF0D4800F01AF80C
:100950000028FAD1681CC5B2701EA842ECDC215CEC
:10096000074800F017F80521054800F011F800BF0E
:10097000034800F007F80028FAD1BDE8F081000034
:1009800000300C40406810F0010018BF0120704793
:100990004160704781607047036A43F0100303624F
:1009A000002A14BF0E4A0F4A02EB820301EB8303B5
:1009B00002EB820292005B1EB3FBF2F2521EC26097
:1009C000D0F8C02F12F0010F08BF7047064A11443B
:1009D000521CB1FBF2F1491E41F08001C160704729
:1009E000801A0600A08601007F47370142EA4101D4
:1009F000016070471649042804BF086840F480303D
:100A000018D0052804BF086840F4003012D006282A
:100A100012D00F2815D0102838BF7047103800F0BA
:100A20001F01012202FA01F142090A4850F822008E
:100A30000160704708607047086840F480200860D3
:100A400070474FF0E020016941F0020101617047F9
:100A500024ED00E0082A000030B40A4D2A680A4B51
:100A60009A421CBFD5F800C0002207D05CF8224093
:100A700043F82240521C9B2AF8D32B6043F82010E5
:100A800030BC704708ED00E00004002010B50F21D5
:100A90000A48FFF731FE0446072C0BD00B2C07D079
:100AA0000D2C03D00E2C07D1012010BD0220FCE735
:100AB0000320FAE70420F8E70020F6E700200640CC
:100AC00010B5AE2000F055F8202000F052F81020AC
:100AD00000F04FF8B02000F04CF8C82000F049F8C2
:100AE000002000F046F8102000F043F8402000F00D
:100AF00040F8812000F03DF8FF2000F03AF8A120F6
:100B000000F037F8A62000F034F8A82000F031F803
:100B10003F2000F02EF8A42000F02BF8D32000F0A6
:100B200028F8002000F025F8D52000F022F8F02069
:100B300000F01FF8D92000F01CF8222000F019F86E
:100B4000DA2000F016F8122000F013F8DB2000F095
:100B500010F8202000F00DF88D2000F00AF8142085
:100B600000F007F8AF2000F004F82E2000F001F8A4
:100B700010BD38B5044600258DF800508DF80140B1
:100B80006A4602213C20FFF747FE38BD38B50446CF
:100B900005A0006800908DF801406A4602213C20C3
:100BA000FFF73AFE38BD00004000000010B5AE204F
:100BB00000F058F8D52000F055F8802000F052F8E9
:100BC000A82000F04FF81F2000F04CF8D32000F0D0
:100BD00049F8002000F046F8402000F043F88D204E
:100BE00000F040F8142000F03DF8DA2000F03AF868
:100BF000022000F037F8812000F034F87F2000F068
:100C000031F8D92000F02EF8222000F02BF8DB205C
:100C100000F028F8402000F025F8A42000F022F889
:100C2000202000F01FF8002000F01CF8A62000F0A3
:100C300019F8AF2000F016F810BD70B500240EE0D2
:100C40000021204600F0B1F8002504E0002000F06B
:100C500017F8681CC5B2802DF8DB601CC4B2082CE4
:100C6000EEDB70BD38B5044600258DF800508DF8D8
:100C700001406A4602213C20FFF744FE38BD0000D7
:100C800038B5044605A0006800908DF801406A461A
:100C900002213C20FFF736FE38BD00004000000076
:100CA0002DE9FC4105460F469046C8F10F02D1B22E
:100CB000C7F10302D0B200F078F840208DF80000B0
:100CC000042453E00026A5F1200000EB80002C490D
:100CD0000844005D06EBD016A5F1200000EB800073
:100CE0000844005D00F0400006EB6016A5F120000E
:100CF00000EB80000844005D00F0200006EBE006F9
:100D0000A5F1200000EB80000844005D00F0100019
:100D100006EB6006A5F1200000EB80000844005DB2
:100D200000F0080006EB4006A5F1200000EB800073
:100D30000844005D00F0040006EBC006A5F12000A9
:100D400000EB80000844005D00F0020006EB401656
:100D5000A5F1200000EB80000844005D06EBC01008
:100D6000C6B2C4F105000DF80060641E002CA9DABB
:100D70006A4606213C20FFF7C5FDBDE8FC81000066
:100D80006E2200002DE9F04104460F46164600256C
:100D900006E03246761C605D3946FFF781FF6D1C28
:100DA000605D0028F5D1BDE8F08170B505460C46C0
:100DB00005F1B001C8B2FFF755FFE107080FFFF7D3
:100DC00051FFE100C1F3031101F11000FFF74AFFE9
:100DD00070BD084401686FF352011143016012F0C5
:100DE000020F14BFB0218C21016214BF4FF4306197
:100DF00040F60C0141627047425842F001024250F5
:100E0000704708440168006911F0020F14BF4000E8
:100E1000401C70470844016811F0020F14BF5108CC
:100E2000511E01617047002A826814BF114322EAF3
:100E300001018160704721F03F031844036813F0FB
:100E4000020F18BF520803699A1A11F0010F14BF5C
:100E5000C26182617047000010B50A4800F0DCFBF7
:100E600000BF084800F0ECFB0028FAD00F2106482C
:100E7000FFF745FC0A2301220F210348FFF762FB1D
:100E800010BD00000A0800F00020064010B5074819
:100E900000F0C2FB00BF054800F0D2FB0028FAD0EA
:100EA000F0210348FFF739FC10BD00000B0800F0EB
:100EB0000030064008B500F025F93748007880B1C9
:100EC00010204C23354A00210090084600F074F8A9
:100ED00010204C23324A00210090402000F06CF892
:100EE0000FE010204C232D4A00210090084600F00E
:100EF00063F810204C232B4A00210090402000F082
:100F00005BF82948007880B110204C23274A15212E
:100F10000090002000F050F810204C23204A1521AA
:100F20000090402000F048F80FE010204C231F4AAA
:100F300015210090002000F03FF810204C23194AA2
:100F400015210090402000F037F81948007880B152
:100F500010204C23174A2A210090002000F02CF882
:100F600010204C230E4A2A210090402000F024F843
:100F70000FE010204C230F4A2A210090002000F09F
:100F80001BF810204C23074A2A210090402000F033
:100F900013F800F095F808BD0D0000208E20000029
:100FA0004E1F0000EE1F00000E0000202E2100004A
:100FB0000F000020CE2100002DE9F84F80460D469D
:100FC00091461E46DDF828B0F01DC11700EB5171A7
:100FD000C91009B200914FF0000A002725E0002453
:100FE0001DE004F0070020B14FEA4A604FEA106AA2
:100FF00009E02046E11704EB5171CA10009907FB84
:10100000012119F801A00AF0800030B1A9B208EB63
:10101000040290B2012200F00DF8601C04B2B44248
:10102000DFDB781C07B2681C05B25F45D7DBBDE883
:10103000F88F0000F0B503461446802B01DA4029F2
:1010400000DBF0BD012C1CD1CD1701EB5575ED1067
:1010500003EBC515194E755D0A46CE1701EB5676A2
:10106000F610A1EBC6070126BE403543EEB2084696
:10107000CD1701EB5575ED1003EBC5150F4F7E55E0
:101080001AE0CD1701EB5575ED1003EBC5150B4EAE
:10109000755D0A46CE1701EB5676F610A1EBC60732
:1010A0000126BE40B5430846CE1701EB5676F61032
:1010B00003EBC616014FBD5500BFC2E76C0600200A
:1010C00070B5002419E004F1B001C8B2FFF751FD7A
:1010D0000020FFF74EFD1020FFF74BFD002508E034
:1010E000802101FB0451064A505CFFF74FFD681C4C
:1010F000C5B2802DF4DB601CC4B2082CE3DB70BDEC
:101100006C060020002004E00021044A1154411C18
:1011100088B2B0F5806FF7DB704700006C060020E6
:1011200010B500200749086000F0A0FA064800F05A
:10113000C7FA064800F0B8FA00F0A6FA00F09DFAE7
:1011400010BD0000000000206D380100991600005D
:1011500010B5194800F060FA00BF174800F070FAA7
:101160000028FAD060234FF4E13214480168144893
:1011700000F0B9FA124800F0EDFA1021104800F022
:10118000F0FA10490E4800F0F1FA0F4800F044FA66
:1011900000BF0D4800F054FA0028FAD00120FFF7F4
:1011A00089FA40F20140FFF785FA03214FF0402011
:1011B000FFF7EBFA10BD0000001800F0040000205B
:1011C00000C00040F1170000000800F02DE9F00316
:1011D000AD4D02462868AD4B1840A0F18053B3F5E1
:1011E000A02358D002F03809DFF8A482C2F3841497
:1011F000B9F1100F24D0B9F1300F04BF47F23050CD
:101200004FF400130CD03820904304BF4FF400403B
:10121000C30105D012F0380F1CBF0020034613D0C5
:101220009C4F12F4605F4FF0000618BF00222CD0D4
:1012300057F8324044457DD307EBC2025268DFE0E5
:10124000002340461524EBE7A4F10900122822D21E
:101250009148D5F87CC04FF04C7350F824002CF026
:101260001C0C072CA8BF4CF0100CC5F87CC02E6DD0
:101270004FF4002C16F4807FD2D1BCF1010C0AD0BF
:101280002E6D16F4807FF8D0CAE712F0380F18BF21
:10129000B9F1100F03D0BDE8F00300207047C2F38E
:1012A0000268DFF8F8C1002257F83290E14503D315
:1012B00007EBC202526803E0521C062AF4D33246FE
:1012C000C5F8C020D5F8B020DFF8D4C102EA0C027E
:1012D00042F00042C5F8B020DFF8C8C1A4F109020D
:1012E0004C1E5CF828C0A444BCFBF1FCD5F8B0103F
:1012F0001943C5F8B01008EBC80101EB41046A4975
:1013000002EB420201EBC40101EB82046468C5F800
:101310006441D5F864416FF0FF0808EB0C2C44EAF7
:101320000C0CC5F864C151F82210D5F8602102F404
:10133000000200E05FE01143C5F86011D5F86011CC
:10134000D5F86021C1F38921C2F30904D5F86421DD
:10135000C2F3042202F1010CD5F8642102F01F024D
:10136000521CB0FBF2F04A09C2F100084443424368
:1013700001EB481104EB5212484302EB9020B0FB02
:10138000FCF041080846002257F832C0844503D3D8
:1013900007EBC200466802E0521C062AF4D3C5F8E7
:1013A000C060D5F8600110F4000F1DBFD5F8B00083
:1013B00040F08040C5F8B000D5F8600104BF40F4AB
:1013C0000000C5F860014FF40040D5F8682112F024
:1013D000010F02D1401E0028F7DC002808BF0021C1
:1013E00048D0D5F8B000184340F0010040F010405C
:1013F000C5F8B0003EE0521C062AFFF419AF324691
:10140000C5F8C020D5F8602122F40002C5F860219B
:10141000D5F8B020DFF894C002EA0C0242F0004296
:10142000C5F8B020002908BF4FF0000C0AD0B0FB6F
:10143000F1FCBCF1000F18BFACF1010C0CF1010183
:10144000B0FBF1F10846002257F83240844203D342
:1014500007EBC200466802E0521C062AF4D3C5F826
:10146000C060D5F8B00043EA8C22104340F0004041
:10147000C5F8B000D5F8B00020F47000C5F8B00091
:10148000BDE8F0030846704700E00F400000FF7021
:101490000024F4009C2800008026000040787D0194
:1014A00000FC0FE078260000EC260000FF0300EFB0
:1014B00070B44B4D2A6E296F11F0004F14BF01F02C
:1014C000700002F03000202808BF464818D005DC24
:1014D00088B1102808BF444812D009E0302808BF5E
:1014E00047F230500CD0702808BF4FF4004007D0AE
:1014F00070BC002070477C203C4B00EA121018584A
:101500004FF0FF3311F0004F02D011F4006F06D0FE
:1015100001F0004C02F400645CEA040C36D1D5F80A
:1015200060C1D5F8644104F01F06C4F30424641CB0
:10153000761C16FB04F46400B0FBF4F0CCF3090451
:101540004443CCF3892C00FB0CF0D5F810C004EB1D
:10155000902042F480020CF4704CBCF5804F08BF20
:10156000234B13D009DCBCF5005F08BF214B0DD025
:10157000BCF5405F08BF204B08E0BCF5E04F08BF5A
:101580001E4B03D0BCF5104F08BF1D4B12F4800F4B
:1015900021D011F0004F19D011F0804F09D011F473
:1015A000006F0CD001F0004C02F400625CEA020211
:1015B00005D0C1F3C551491CB0FBF1F00BE0400070
:1015C000C1F38651491CB0FBF1F004E0C2F3C351F2
:1015D000491CB0FBF1F0834238BF184670BC70471D
:1015E00000E00F4000093D000024F40080260000C8
:1015F000005A620200B4C40480F0FA0240787D010F
:10160000002D310103490A6E22F4F01210430866DE
:101610007047000000E00F40C0F307230749C0B245
:10162000194401F07043C1F3130143EA411141EA47
:10163000800040F0007001220260704700E60F4019
:10164000C0F307220849C0B2114401F07042C1F34F
:10165000130142EA411141EA800040F00070006845
:10166000002818BF0120704700EA0F404FF0E0202B
:10167000016921F00101016170474FF0E02001692B
:1016800041F00501016170474FF0E020016941F030
:10169000020101617047000002480068401C0149D6
:1016A000086070470000002010B501460F20FFF7CA
:1016B000D3F94FF0E020016941F00201016110BD52
:1016C0004FF0E021401E48617047816911F0100F12
:1016D0000CBF00684FF0FF307047826912F0200F96
:1016E000FBD101607047D0F818C01CF0080FFAD188
:1016F000D0F82CC02CF0100CC0F82CC0D0F830C0A2
:101700002CF0010C2CF4407CC0F830C0D0F830C074
:10171000B1EB021F34BF4CF0200C2CF0200CC0F8B1
:1017200030C038BF5208C900B1FBF2F1491C49086A
:101730008A09426201F03F018162C3620021816136
:10174000C16A41F01001C162016B40F201321143E4
:1017500001637047C16A21F01001C16270474164A2
:101760007047826B1143816370470000124A10B5C5
:10177000104B12684FF0080C104C2240A2F180541C
:10178000B4F5202408BF0E4B002253F832408442A7
:1017900003D103EBC200446803E0521C6245F4D35A
:1017A00000242046FFF758F92046BDE81040FFF717
:1017B00021B90000CC28000000E00F400000FF70BD
:1017C0000C290000002914BF006CC06B704700009A
:1017D00070B504460D4604E014F8011B0348FFF7FA
:1017E0007CFF281EA5F10105F6D170BD00C00040A8
:1017F00070B501210D48FFF7E5FF054629460B4866
:10180000FFF7ADFF0948FFF760FFC4B20848407812
:10181000074908700846807848700846C078887084
:101820000846C47001200349087070BD00C0004024
:10183000080000200C00002070B500250120FEF7F4
:101840003FFEFFF723F904468CB1012C06D0022C91
:1018500006D0032C06D0042C08D105E0372505E07E
:10186000342503E0312501E0232500BF00BF02201D
:10187000FEF726FEFFF70AF9044694B18DB9012C54
:1018800006D0022C06D0032C06D0042C08D105E08B
:10189000382505E0352503E0322501E0302500BF7D
:1018A00000BF0320FEF70CFEFFF7F0F8044694B1EA
:1018B0008DB9012C06D0022C06D0032C06D0042CA6
:1018C00008D105E0392505E0362503E0332501E0A0
:1018D0002A2500BF00BF0420FEF7F2FDFFF7D6F86F
:1018E000044694B18DB9012C06D0022C06D0032CED
:1018F00006D0042C08D105E0412505E0422503E08F
:10190000432501E0442500BF00BF284670BD00000C
:101910008CB000BF00BF00BF00BF00BFFD49FE4844
:10192000FFF754FCFD4908600020FFF76BFEFC4800
:10193000FFF772FEFFF7F4FBFFF78EFAFFF7A6FA48
:10194000F848FFF769FE00BFF648FFF779FE002868
:10195000FAD0F448C01FFFF75FFE00BFF148C01F78
:10196000FFF76EFE0028F9D0EE48001FFFF754FE87
:1019700000BFEC48001FFFF763FE0028F9D00321E9
:10198000E948FEF7CAFE1021E848FEF7C6FE01212D
:10199000E648FEF7ECFE0321E548FEF7B0FE0A2319
:1019A00001220321E248FEF7CDFDFFF7D1FBE1481C
:1019B000FEF780FE02224021DF48FFF70AFAD748EF
:1019C000006842F21071B0FBF1FA52464021DA4849
:1019D000FFF720FA4021D848FFF713FA4FF0000A2A
:1019E00052464021D448FFF726FA01221146D24838
:1019F000FFF719FA4021D048FFF7FEF9CF480068F9
:101A0000FEF7D4FEFFF75CF8FFF77CFB10204C23B9
:101A1000CB4A002100900846FFF7CEFA10204C2355
:101A2000C84A002100904020FFF7C6FA10204C233E
:101A3000C54A152100900020FFF7BEFA10204C2364
:101A4000C04A152100904020FFF7B6FA10204C2321
:101A5000BE4A2A2100900020FFF7AEFA10204C2346
:101A6000B84A2A2100904020FFF7A6FAFFF728FB8A
:101A7000FEF712FFFFF79AF8FFF7DFF80022114692
:101A8000B3A0FFF77FF900220221B5A0FFF77AF992
:101A900000220321B5A0FFF775F9002601270025D4
:101AA000A846B5A0006802904FF0010941E2B34892
:101AB000007800287ED0B248007823287AD1B04838
:101AC0004078522877D1AE488078302857D03128D6
:101AD0002BD0322870D1AA48C078312810D11022DA
:101AE00011469248FEF75FFE0421A6A0FFF770FEA4
:101AF0000020A24908700120A4490870FFF7DAF914
:101B00009F48C07830280FD1002210218748FEF767
:101B10004AFE04219EA0FFF75BFE00209749087053
:101B20009A490870FFF7C6F95BE09548C0783128FC
:101B300010D1012211467C48FEF735FE042196A003
:101B4000FFF746FE00208D49087001209449087077
:101B5000FFF7B0F98A48C07830280FD10022012160
:101B60007148FEF720FE04218EA0FFF731FE002011
:101B7000824908708A490870FFF79CF931E0804873
:101B8000C078312810D1022211466748FEF70BFEBB
:101B9000042186A0FFF71CFE002078490870012070
:101BA00084490870FFF786F97548C078302813D14A
:101BB000002202E088E015E00FE002215A48FEF71B
:101BC000F2FD04217CA0FFF703FE00206B490870A2
:101BD00078490870FFF76EF903E000206749087044
:101BE00000BF00BF6648407854286DD164488078B3
:101BF000582822D16248C07831281ED110221146BF
:101C00004A48FEF7D0FD012211464748FEF7CBFDBA
:101C1000022211464448FEF7C6FD042168A0FFF7E2
:101C2000D7FD0020554908700120624908705C49C1
:101C3000087056490870FFF73DF9514880785828D8
:101C400021D14F48C07830281DD1002210213748BB
:101C5000FEF7A9FD002201213348FEF7A4FD002272
:101C600002213148FEF79FFD042157A0FFF7B0FD88
:101C70000020424908704F4908704949087043499B
:101C80000870FFF717F93E48807853281CD13C486C
:101C9000C078542818D13D480078402141EA80009E
:101CA0003F49097840EA41004249097840EA010881
:101CB000424647A10BA8FEF721FB04210BA8FFF722
:101CC00087FD00202D490870FFF7B6FD0446A145A9
:101CD0000AD0A1464FB119480068A84204D3002792
:101CE0001648006800F1640523E1002CFCD013487D
:101CF0000068A842F8D301271048006800F1640585
:101D00009DF80900202869D0232C01D02A2C65D108
:101D100062E063E000B4C404100000F0040000209E
:101D2000004000F00C0800F0004006400050024067
:101D300000D00340060005000080024000000020A3
:101D40008E200000EE1F00002E210000CE2100009A
:101D5000446967697465206F2050574D000000008A
:101D60002320636F6E6669726D6100002A207265C0
:101D70007365746100000000202020000C0000202A
:101D80000800002040523231000000000F00002007
:101D9000405232300000000040523131000000005B
:101DA0000E0000204052313000000000405230311F
:101DB000000000000D000020405230300000000004
:101DC00040545831000000004054583000000000DA
:101DD00040545325630000008DF80A409DF80A0026
:101DE0002A2815D120208DF808008DF809008DF8DB
:101DF0000A009DF809309DF808204EA103A8FEF7BF
:101E00007DFAFEF71AFF0022114603A8FEF7BAFF7B
:101E10009DF8080020280FD09DF8090020280BD13C
:101E2000232C09D0412C07D0422C05D0432C03D0C1
:101E3000442C01D08DF809409DF809002A2815D1BD
:101E400020208DF808008DF809008DF80A009DF813
:101E500009309DF8082037A103A8FEF74FFAFEF7D6
:101E6000ECFE0022114603A8FEF78CFF9DF8080047
:101E700020280DD1232C0BD02A2C09D0412C07D09F
:101E8000422C05D0432C03D0442C01D08DF80840BF
:101E90009DF80A0023282DD19DF8090030389DF8BF
:101EA0000810303901EB810100EB4100C6B240213E
:101EB0002348FEF7A6FF70436421B0FBF1FA5246B7
:101EC00040211F48FEF7B7FF9DF809309DF8082014
:101ED00018A103A8FEF712FAFEF7AFFE0022114682
:101EE00003A8FEF74FFF20208DF808008DF80900A9
:101EF0008DF80A009DF80A0023281AD09DF80930B1
:101F00009DF808200BA103A8FEF7F8F9FEF795FE4F
:101F10000022114603A8FEF735FF00220221AFF28E
:101F2000C010FEF72FFF00220321AFF2C010FEF712
:101F300029FFBCE550574D3D256325630000000097
:101F4000008002404FF04070E1EE100A7047000040
:101F50000000000000000000000000000000000081
:101F60000000000000000000000000000000000071
:101F7000000000000000000000001F000000000042
:101F8000000000003F8000000000000000003F80D3
:101F90000000000000FFFFFFFFFFFFFFE000000068
:101FA00000003F8000000000000000003F800000B3
:101FB0000000000000001F00000000000000000002
:101FC0000000000000000000000000000000000011
:101FD0000000000000000000000000000000000001
:101FE00000000000000000000000000000000000F1
:101FF00000001F0000000000000000003F80000003
:102000000000000000003F80000000000000000011
:102010007F8000000000000000039F00000000001F
:102020000000001C0E0000000000000000E00000A6
:102030000000000000000700000000000000000099
:1020400038000000000000000001C0000E00000089
:102050000000000E00001F000000000000700000E3
:102060003F8000000000008000003FFFFFFFE00015
:10207000000000003F8000000000000000001F0082
:1020800000000000000000000E0000000000000042
:102090000000000000000000000000000000000040
:1020A000400001FC0003C0000003C00001FE00036B
:1020B000C0000003C000008200004000000040009B
:1020C00000820F00403C0000400000861FC040FE20
:1020D0000000400000FC304040830000400000F859
:1020E0003FC041FF00004000008C3FE041FF000086
:1020F00040000086300040800000400001E39FE780
:10210000F8FF0003F80001E18FC7F83E0003F80074
:1021100000000000000000000000000000000000BF
:1021200000000000000000000000000000000000AF
:10213000000000000000000000000000000000009F
:10214000E00001FC0003C0000003F00001FE0003FA
:10215000C0000003180000820000400000020800D8
:1021600000820F00403C0000180000861FC040FEA7
:102170000000300000FC304040830000600000F8A8
:102180003FC041FF0000C000008C3FE041FF000164
:1021900080000086300040800003000001E39FE7DC
:1021A000F8FF0007F80001E18FC7F83E0007F800CC
:1021B000000000000000000000000000000000001F
:1021C000000000000000000000000000000000000F
:1021D00000000000000000000000000000000001FE
:1021E000E00001FC0003C0000003F00001FE00035A
:1021F000C00000021800008200004000000008003B
:1022000000820F00403C0000180000861FC040FE06
:102210000000F00000FC304040830000F00000F8B7
:102220003FC041FF00001800008C3FE041FF00006C
:1022300008000086300040800002080001E39FE7AC
:10224000F8FF0007F80001E18FC7F83E0001F00039
:10225000000000000000000000000000000000007E
:10226000000000000000000000000000000000006E
:1022700000000000005F00000007000700147F144A
:102280007F14242A7F2A12231308646236495522B8
:10229000500005030000001C2241000041221C00E8
:1022A00014083E081408083E0808005030000008D2
:1022B00008080808006060000020100804023E5171
:1022C00049453E00427F4000426151494621414517
:1022D0004B311814127F1027454545393C4A49496E
:1022E0003001710905033649494936064949291E15
:1022F0000036360000005636000008142241001453
:102300001414141400412214080201510906324920
:1023100079413E7E1111117E7F494949363E414146
:1023200041227F4141221C7F494949417F090909D6
:10233000013E4149497A7F0808087F00417F4100FA
:102340002040413F017F081422417F404040407FB0
:10235000020C027F7F0408107F3E4141413E7F090D
:102360000909063E4151215E7F091929464649491E
:10237000493101017F01013F4040403F1F20402083
:102380001F3F4038403F6314081463070870080774
:102390006151494543007F4141000204081020007B
:1023A00041417F00040201020440404040400001DE
:1023B00002040020545454787F484444383844443C
:1023C0004420384444487F3854545418087E090146
:1023D000020C5252523E7F0804047800447D4000B3
:1023E0002040443D007F1028440000417F40007C95
:1023F000041804787C0804047838444444387C1475
:10240000141408081414187C7C0804040848545454
:102410005420043F4440203C4040207C1C2040206D
:102420001C3C4030403C44281028440C5050503C48
:102430004464544C44000836410000007F00000012
:102440004136080010080810087846414678000018
:102450000040004010000000008005401000000017
:1024600000500040110000000090054011000000E5
:10247000006000401200000000A0054012000000B3
:10248000007000401300000000B005401300000081
:10249000004002401400000000C00540140000008D
:1024A000005002402E00000000D005402E00000029
:1024B000006002402F00000000E005402F000000F7
:1024C000007002403000000000F0054030000000C5
:1024D00000D0034046000000000006404600000017
:1024E00000100640470000000020064048000000A1
:1024F000003006407F0000000040064080000000E1
:102500000050064084000000006006408C0000007F
:102510000040004010000000008005401000000056
:102520000050004011000000009005401100000024
:10253000006000401200000000A0054012000000F2
:10254000007000401300000000B0054013000000C0
:10255000004002401400000000C0054014000000CC
:10256000005002402E00000000D005402E00000068
:10257000006002402F00000000E005402F00000036
:10258000007002403000000000F005403000000004
:1025900000D003404300000000000640430000005C
:1025A00000100640440000000020064045000000E6
:1025B000003006405800000000400640590000006E
:1025C000005006405C00000000600640640000000F
:1025D000007006406C000000008006406D000000A6
:1025E000009006407F000000004000400080054051
:1025F00000500040009005400060004000A00540F1
:102600000070004000B005400040024000C005409E
:102610000050024000D005400060024000E005404C
:102620000070024000F0054000D00340000006406A
:102630000010064000100640002006400020064022
:102640000030064000300640004006400040064092
:102650000050064000500640006006400060064002
:102660000070064000700640008006400080064072
:10267000009006400090064000688909001C4E0E3C
:1026800040420F0000201C0080841E0000802500B6
:10269000999E36000040380000093D0000803E0051
:1026A00000004B00404B4C0000204E00808D5B0032
:1026B00000C05D000080700000127A0000007D0004
:1026C00080969800001BB7000080BB00C0E8CE00D9
:1026D000647ADA000024F4000000FA0080A81201F5
:1026E000002D310100366E0140787D014000000070
:1026F00000000000000100003E0008000000000093
:1027000000010000A0000000020000000001000025
:102710003454010000000000000100002B7006008E
:102720000000000000010000280000000000000080
:10273000000100002700010000000000000100006F
:102740002000000000000000000100005000000018
:1027500002000000000100001AAC000000000000B0
:1027600000010000179409000000000000010000B3
:102770001698050000000000000100001400000091
:1027800000000000000100001380080000000000AD
:1027900000010000A000000008000000000100008F
:1027A00010000000000000000001000028000000F0
:1027B00002000000000100004000000004000000D2
:1027C00000010000600000000000000000010000A7
:1027D0005D000C000000000000010000500000003F
:1027E00000000000000100004E0002000000000098
:1027F0000001000041AC01000000000000010000E9
:102800003C00000000000000000100003A800900C8
:102810000000000000010000300000000000000087
:10282000000100002800000000000000000100007E
:1028300027000100000000000001000023600600E6
:1028400000000000000100002160080000000000FE
:10285000000100001E000000000000000001000058
:102860001DC0040000000000000100005000000036
:10287000020000000001000018000000000000003D
:102880000001000014000000000000000001000032
:102890006000000004000000000100000024F400BB
:1028A00030003000005A62029100910000879303CB
:1028B000D200D20000B4C4041301130100E1F505F5
:1028C00054015401000E27079501950100C00040F6
:1028D0001500000000D000401600000000E000409D
:1028E0003100000000F000404B00000000000140FB
:1028F0004C000000001001404D000000002001408D
:102900004E000000003001404F00000000C00040B9
:102910001500000000D000401600000000E000405C
:102920003100000000F000404800000000000140BD
:1029300049000000001001404A0000000020014052
:102940004B000000003001404C0000000007000078
:102950000006000000050000000400000003000065
:102960000002000000010000000000000000000064
:1029700018ED00E01CED00E020ED00E000E400E0D8
:1029800004E400E008E400E00CE400E010E400E00F
:1029900014E400E018E400E01CE400E020E400E0BF
:1029A00024E400E028E400E02CE400E030E400E06F
:1029B00034E400E038E400E03CE400E040E400E01F
:1029C00044E400E048E400E04CE400E050E400E0CF
:1029D00054E400E058E400E05CE400E060E400E07F
:1029E00064E400E068E400E06CE400E070E400E02F
:1029F00074E400E078E400E07CE400E080E400E0DF
:102A000084E400E088E400E000E100E004E100E0AC
:102A100008E100E00CE100E010E100E080E100E00E
:102A200084E100E088E100E08CE100E090E100E07A
:102A300000E200E004E200E008E200E00CE200E076
:102A400010E200E080E200E084E200E088E200E0E2
:102A50008CE200E090E200E0782A00000000002014
:102A60006C06000058020000882A00006C06002056
:102A7000640600009402000001FF01FF01FF01FF56
:082A800001FF01FF01790000D4
:0400000500000201F4
:00000001FF
